{
  "_format": "hh-sol-artifact-1",
  "contractName": "SafeSign",
  "sourceName": "contracts/SafeSign.sol",
  "abi": [
    {
      "inputs": [
        {
          "internalType": "bytes32[]",
          "name": "proof",
          "type": "bytes32[]"
        },
        {
          "internalType": "bytes32",
          "name": "root",
          "type": "bytes32"
        },
        {
          "internalType": "bytes",
          "name": "leaf",
          "type": "bytes"
        }
      ],
      "name": "_verifyECDSAmerkle",
      "outputs": [
        {
          "internalType": "bool",
          "name": "",
          "type": "bool"
        }
      ],
      "stateMutability": "pure",
      "type": "function"
    },
    {
      "inputs": [
        {
          "internalType": "bytes",
          "name": "data",
          "type": "bytes"
        },
        {
          "internalType": "bytes32",
          "name": "r",
          "type": "bytes32"
        },
        {
          "internalType": "bytes32",
          "name": "vs",
          "type": "bytes32"
        },
        {
          "internalType": "address",
          "name": "account",
          "type": "address"
        }
      ],
      "name": "_verifyECDSAsig",
      "outputs": [
        {
          "internalType": "bool",
          "name": "",
          "type": "bool"
        }
      ],
      "stateMutability": "pure",
      "type": "function"
    },
    {
      "inputs": [
        {
          "internalType": "bytes",
          "name": "message",
          "type": "bytes"
        },
        {
          "components": [
            {
              "internalType": "uint256[]",
              "name": "idx",
              "type": "uint256[]"
            },
            {
              "internalType": "bytes",
              "name": "pk",
              "type": "bytes"
            },
            {
              "internalType": "bytes32[]",
              "name": "proof",
              "type": "bytes32[]"
            },
            {
              "internalType": "bytes32",
              "name": "root",
              "type": "bytes32"
            },
            {
              "internalType": "bytes32",
              "name": "r",
              "type": "bytes32"
            },
            {
              "internalType": "bytes32",
              "name": "vs",
              "type": "bytes32"
            }
          ],
          "internalType": "struct sigUnit[5]",
          "name": "safeSignSig",
          "type": "tuple[5]"
        },
        {
          "internalType": "bytes32",
          "name": "pk",
          "type": "bytes32"
        }
      ],
      "name": "_verifySafeSign",
      "outputs": [
        {
          "internalType": "bool",
          "name": "",
          "type": "bool"
        }
      ],
      "stateMutability": "pure",
      "type": "function"
    },
    {
      "inputs": [
        {
          "internalType": "bytes",
          "name": "pk",
          "type": "bytes"
        }
      ],
      "name": "pkToAddress",
      "outputs": [
        {
          "internalType": "address",
          "name": "",
          "type": "address"
        }
      ],
      "stateMutability": "pure",
      "type": "function"
    },
    {
      "inputs": [
        {
          "internalType": "bytes32",
          "name": "seed",
          "type": "bytes32"
        }
      ],
      "name": "randomChoice",
      "outputs": [
        {
          "internalType": "uint256[5]",
          "name": "",
          "type": "uint256[5]"
        }
      ],
      "stateMutability": "pure",
      "type": "function"
    }
  ],
  "bytecode": "0x608060405234801561001057600080fd5b50611acb806100206000396000f3fe608060405234801561001057600080fd5b50600436106100575760003560e01c8063066db1c11461005c57806335938c1c1461008c5780633e2f7595146100bc5780637a64cf71146100ec578063bd1bc8061461011c575b600080fd5b61007660048036038101906100719190610ddc565b61014c565b6040516100839190610e7a565b60405180910390f35b6100a660048036038101906100a19190610e95565b6101a2565b6040516100b39190610eed565b60405180910390f35b6100d660048036038101906100d19190610f08565b6101b6565b6040516100e39190610fea565b60405180910390f35b610106600480360381019061010191906110cd565b6102f1565b6040516101139190610e7a565b60405180910390f35b61013660048036038101906101319190611414565b61030e565b6040516101439190610e7a565b60405180910390f35b60008173ffffffffffffffffffffffffffffffffffffffff166101818585888051906020012061062c9092919063ffffffff16565b73ffffffffffffffffffffffffffffffffffffffff16149050949350505050565b6000818051906020012060001c9050919050565b6101be610bcc565b6101c6610bcc565b6000808060001b905060005b60058110156102e557856101e584610655565b836040516020016101f893929190611531565b604051602081830303815290604052805190602001209150828061021b90611599565b93505060008260001c90505b600a6001901b811015801561023c5750600582105b156102df5760006001600a6001901b61025591906115e1565b82169050600a82901c91506000805b848110156102a65787816005811061027f5761027e611615565b5b6020020151830361029357600191506102a6565b808061029e90611599565b915050610264565b50806102d857818785600581106102c0576102bf611615565b5b60200201818152505083806102d490611599565b9450505b5050610227565b506101d2565b83945050505050919050565b600061030584848480519060200120610723565b90509392505050565b60008060026040518060400160405280600f81526020017f45434453412d534543503235364b310000000000000000000000000000000000815250848760405160200161035d9392919061168b565b60405160208183030381529060405260405161037991906116c0565b602060405180830381855afa158015610396573d6000803e3d6000fd5b5050506040513d601f19601f820116820180604052508101906103b991906116ec565b905060006002826040516020016103d09190611765565b6040516020818303038152906040526040516103ec91906116c0565b602060405180830381855afa158015610409573d6000803e3d6000fd5b5050506040513d601f19601f8201168201806040525081019061042c91906116ec565b9050600060028360405160200161044391906117d7565b60405160208183030381529060405260405161045f91906116c0565b602060405180830381855afa15801561047c573d6000803e3d6000fd5b5050506040513d601f19601f8201168201806040525081019061049f91906116ec565b905060006104ac836101b6565b905060006001905060005b600581101561061c5760008982600581106104d5576104d4611615565b5b602002015190508280156104ee57506005816000015151145b925060005b6005811015610582576000805b60058110156105615786816005811061051c5761051b611615565b5b60200201518460000151848151811061053857610537611615565b5b60200260200101510361054e5760019150610561565b828061055990611599565b935050610500565b5084801561056c5750805b945050808061057a90611599565b9150506104f3565b508280156105aa57506105a981604001518260600151836020015180519060200120610723565b5b92508280156105f457506105f3856040516020016105c891906117fd565b60405160208183030381529060405282608001518360a001516105ee85602001516101a2565b61014c565b5b92506000151583151503610608575061061c565b50808061061490611599565b9150506104b7565b5080955050505050509392505050565b600080600061063c86868661073a565b9150915061064981610799565b81925050509392505050565b606060006001610664846108ff565b01905060008167ffffffffffffffff81111561068357610682610c1d565b5b6040519080825280601f01601f1916602001820160405280156106b55781602001600182028036833780820191505090505b509050600082602001820190505b600115610718578080600190039150507f3031323334353637383961626364656600000000000000000000000000000000600a86061a8153600a858161070c5761070b611818565b5b049450600085036106c3575b819350505050919050565b6000826107308584610a52565b1490509392505050565b60008060007f7fffffffffffffffffffffffffffffffffffffffffffffffffffffffffffffff60001b841690506000601b60ff8660001c901c61077d9190611847565b905061078b87828885610aa8565b935093505050935093915050565b600060048111156107ad576107ac61187b565b5b8160048111156107c0576107bf61187b565b5b03156108fc57600160048111156107da576107d961187b565b5b8160048111156107ed576107ec61187b565b5b0361082d576040517f08c379a000000000000000000000000000000000000000000000000000000000815260040161082490611907565b60405180910390fd5b600260048111156108415761084061187b565b5b8160048111156108545761085361187b565b5b03610894576040517f08c379a000000000000000000000000000000000000000000000000000000000815260040161088b90611973565b60405180910390fd5b600360048111156108a8576108a761187b565b5b8160048111156108bb576108ba61187b565b5b036108fb576040517f08c379a00000000000000000000000000000000000000000000000000000000081526004016108f290611a05565b60405180910390fd5b5b50565b600080600090507a184f03e93ff9f4daa797ed6e38ed64bf6a1f010000000000000000831061095d577a184f03e93ff9f4daa797ed6e38ed64bf6a1f010000000000000000838161095357610952611818565b5b0492506040810190505b6d04ee2d6d415b85acef8100000000831061099a576d04ee2d6d415b85acef810000000083816109905761098f611818565b5b0492506020810190505b662386f26fc1000083106109c957662386f26fc1000083816109bf576109be611818565b5b0492506010810190505b6305f5e10083106109f2576305f5e10083816109e8576109e7611818565b5b0492506008810190505b6127108310610a17576127108381610a0d57610a0c611818565b5b0492506004810190505b60648310610a3a5760648381610a3057610a2f611818565b5b0492506002810190505b600a8310610a49576001810190505b80915050919050565b60008082905060005b8451811015610a9d57610a8882868381518110610a7b57610a7a611615565b5b6020026020010151610b8a565b91508080610a9590611599565b915050610a5b565b508091505092915050565b6000807f7fffffffffffffffffffffffffffffff5d576e7357a4501ddfe92f46681b20a08360001c1115610ae3576000600391509150610b81565b600060018787878760405160008152602001604052604051610b089493929190611a50565b6020604051602081039080840390855afa158015610b2a573d6000803e3d6000fd5b505050602060405103519050600073ffffffffffffffffffffffffffffffffffffffff168173ffffffffffffffffffffffffffffffffffffffff1603610b7857600060019250925050610b81565b80600092509250505b94509492505050565b6000818310610ba257610b9d8284610bb5565b610bad565b610bac8383610bb5565b5b905092915050565b600082600052816020526040600020905092915050565b6040518060a00160405280600590602082028036833780820191505090505090565b6000604051905090565b600080fd5b600080fd5b600080fd5b600080fd5b6000601f19601f8301169050919050565b7f4e487b7100000000000000000000000000000000000000000000000000000000600052604160045260246000fd5b610c5582610c0c565b810181811067ffffffffffffffff82111715610c7457610c73610c1d565b5b80604052505050565b6000610c87610bee565b9050610c938282610c4c565b919050565b600067ffffffffffffffff821115610cb357610cb2610c1d565b5b610cbc82610c0c565b9050602081019050919050565b82818337600083830152505050565b6000610ceb610ce684610c98565b610c7d565b905082815260208101848484011115610d0757610d06610c07565b5b610d12848285610cc9565b509392505050565b600082601f830112610d2f57610d2e610c02565b5b8135610d3f848260208601610cd8565b91505092915050565b6000819050919050565b610d5b81610d48565b8114610d6657600080fd5b50565b600081359050610d7881610d52565b92915050565b600073ffffffffffffffffffffffffffffffffffffffff82169050919050565b6000610da982610d7e565b9050919050565b610db981610d9e565b8114610dc457600080fd5b50565b600081359050610dd681610db0565b92915050565b60008060008060808587031215610df657610df5610bf8565b5b600085013567ffffffffffffffff811115610e1457610e13610bfd565b5b610e2087828801610d1a565b9450506020610e3187828801610d69565b9350506040610e4287828801610d69565b9250506060610e5387828801610dc7565b91505092959194509250565b60008115159050919050565b610e7481610e5f565b82525050565b6000602082019050610e8f6000830184610e6b565b92915050565b600060208284031215610eab57610eaa610bf8565b5b600082013567ffffffffffffffff811115610ec957610ec8610bfd565b5b610ed584828501610d1a565b91505092915050565b610ee781610d9e565b82525050565b6000602082019050610f026000830184610ede565b92915050565b600060208284031215610f1e57610f1d610bf8565b5b6000610f2c84828501610d69565b91505092915050565b600060059050919050565b600081905092915050565b6000819050919050565b6000819050919050565b610f6881610f55565b82525050565b6000610f7a8383610f5f565b60208301905092915050565b6000602082019050919050565b610f9c81610f35565b610fa68184610f40565b9250610fb182610f4b565b8060005b83811015610fe2578151610fc98782610f6e565b9650610fd483610f86565b925050600181019050610fb5565b505050505050565b600060a082019050610fff6000830184610f93565b92915050565b600067ffffffffffffffff8211156110205761101f610c1d565b5b602082029050602081019050919050565b600080fd5b600061104961104484611005565b610c7d565b9050808382526020820190506020840283018581111561106c5761106b611031565b5b835b8181101561109557806110818882610d69565b84526020840193505060208101905061106e565b5050509392505050565b600082601f8301126110b4576110b3610c02565b5b81356110c4848260208601611036565b91505092915050565b6000806000606084860312156110e6576110e5610bf8565b5b600084013567ffffffffffffffff81111561110457611103610bfd565b5b6111108682870161109f565b935050602061112186828701610d69565b925050604084013567ffffffffffffffff81111561114257611141610bfd565b5b61114e86828701610d1a565b9150509250925092565b600067ffffffffffffffff82111561117357611172610c1d565b5b602082029050919050565b600080fd5b600080fd5b600067ffffffffffffffff8211156111a3576111a2610c1d565b5b602082029050602081019050919050565b6111bd81610f55565b81146111c857600080fd5b50565b6000813590506111da816111b4565b92915050565b60006111f36111ee84611188565b610c7d565b9050808382526020820190506020840283018581111561121657611215611031565b5b835b8181101561123f578061122b88826111cb565b845260208401935050602081019050611218565b5050509392505050565b600082601f83011261125e5761125d610c02565b5b813561126e8482602086016111e0565b91505092915050565b600060c0828403121561128d5761128c61117e565b5b61129760c0610c7d565b9050600082013567ffffffffffffffff8111156112b7576112b6611183565b5b6112c384828501611249565b600083015250602082013567ffffffffffffffff8111156112e7576112e6611183565b5b6112f384828501610d1a565b602083015250604082013567ffffffffffffffff81111561131757611316611183565b5b6113238482850161109f565b604083015250606061133784828501610d69565b606083015250608061134b84828501610d69565b60808301525060a061135f84828501610d69565b60a08301525092915050565b600061137e61137984611158565b610c7d565b9050806020840283018581111561139857611397611031565b5b835b818110156113df57803567ffffffffffffffff8111156113bd576113bc610c02565b5b8086016113ca8982611277565b8552602085019450505060208101905061139a565b5050509392505050565b600082601f8301126113fe576113fd610c02565b5b600561140b84828561136b565b91505092915050565b60008060006060848603121561142d5761142c610bf8565b5b600084013567ffffffffffffffff81111561144b5761144a610bfd565b5b61145786828701610d1a565b935050602084013567ffffffffffffffff81111561147857611477610bfd565b5b611484868287016113e9565b925050604061149586828701610d69565b9150509250925092565b6000819050919050565b6114ba6114b582610d48565b61149f565b82525050565b600081519050919050565b600081905092915050565b60005b838110156114f45780820151818401526020810190506114d9565b60008484015250505050565b600061150b826114c0565b61151581856114cb565b93506115258185602086016114d6565b80840191505092915050565b600061153d82866114a9565b60208201915061154d8285611500565b915061155982846114a9565b602082019150819050949350505050565b7f4e487b7100000000000000000000000000000000000000000000000000000000600052601160045260246000fd5b60006115a482610f55565b91507fffffffffffffffffffffffffffffffffffffffffffffffffffffffffffffffff82036115d6576115d561156a565b5b600182019050919050565b60006115ec82610f55565b91506115f783610f55565b925082820390508181111561160f5761160e61156a565b5b92915050565b7f4e487b7100000000000000000000000000000000000000000000000000000000600052603260045260246000fd5b600081519050919050565b600081905092915050565b600061166582611644565b61166f818561164f565b935061167f8185602086016114d6565b80840191505092915050565b6000611697828661165a565b91506116a382856114a9565b6020820191506116b3828461165a565b9150819050949350505050565b60006116cc828461165a565b915081905092915050565b6000815190506116e681610d52565b92915050565b60006020828403121561170257611701610bf8565b5b6000611710848285016116d7565b91505092915050565b7f5052470000000000000000000000000000000000000000000000000000000000600082015250565b600061174f6003836114cb565b915061175a82611719565b600382019050919050565b600061177182846114a9565b60208201915061178082611742565b915081905092915050565b7f5349470000000000000000000000000000000000000000000000000000000000600082015250565b60006117c16003836114cb565b91506117cc8261178b565b600382019050919050565b60006117e382846114a9565b6020820191506117f2826117b4565b915081905092915050565b600061180982846114a9565b60208201915081905092915050565b7f4e487b7100000000000000000000000000000000000000000000000000000000600052601260045260246000fd5b600061185282610f55565b915061185d83610f55565b92508282019050808211156118755761187461156a565b5b92915050565b7f4e487b7100000000000000000000000000000000000000000000000000000000600052602160045260246000fd5b600082825260208201905092915050565b7f45434453413a20696e76616c6964207369676e61747572650000000000000000600082015250565b60006118f16018836118aa565b91506118fc826118bb565b602082019050919050565b60006020820190508181036000830152611920816118e4565b9050919050565b7f45434453413a20696e76616c6964207369676e6174757265206c656e67746800600082015250565b600061195d601f836118aa565b915061196882611927565b602082019050919050565b6000602082019050818103600083015261198c81611950565b9050919050565b7f45434453413a20696e76616c6964207369676e6174757265202773272076616c60008201527f7565000000000000000000000000000000000000000000000000000000000000602082015250565b60006119ef6022836118aa565b91506119fa82611993565b604082019050919050565b60006020820190508181036000830152611a1e816119e2565b9050919050565b611a2e81610d48565b82525050565b600060ff82169050919050565b611a4a81611a34565b82525050565b6000608082019050611a656000830187611a25565b611a726020830186611a41565b611a7f6040830185611a25565b611a8c6060830184611a25565b9594505050505056fea2646970667358221220bd0538d387bdf17243567956d0482a80763fb12a6317dc45ef5043ba6952792a64736f6c63430008120033",
  "linkReferences": {},
  "deployedLinkReferences": {}
}